:020000040800F2
:04000000EF00802865
:100004000000000000000000800200080000000062
:100014000000000000000000800200080000000052
:1000240000000000000000000000000000000000CC
:1000340000000000000000000000000000000000BC
:100044008002000880020008800200088002000884
:100054008002000880020008800200088002000874
:100064008002000880020008800200088002000864
:100074008002000880020008800200088002000854
:100084008002000880020008800200088002000844
:100094008002000880020008800200088002000834
:1000A4008002000880020008800200088002000824
:1000B4008002000880020008800200088002000814
:1000C4008002000880020008800200088002000804
:1000D400800200088002000880020008A6030008CD
:1000E40080020008800200088002000880020008E4
:1000F4008002000800000000000000000000000072
:100104000000000000000000800200080000000061
:1001140080020008800200088002000880020008B3
:1001240080020008800200088002000880020008A3
:10013400800200088002000880020008000000001D
:10014400000000008002000880020008800200080D
:0801540080020008800200088F
:10015C00411122C600080100324441018280411144
:10016C0022C600080100324441018280011106CEF2
:10017C0022CC0010B70700081387C773B707000815
:10018C009387C773B307F74089872324F4FE23268C
:10019C0004FE0327C4FE832784FE6352F702B707CD
:1001AC0000081387C7738327C4FE8A07BA979C433A
:1001BC0082978327C4FE85072326F4FED9BF493FC7
:1001CC00B70700081387C773B70700089387C7736F
:1001DC00B307F74089872324F4FE232604FE032764
:1001EC00C4FE832784FE6352F702B7070008138707
:1001FC00C7738327C4FE8A07BA979C4382978327C9
:10020C00C4FE85072326F4FED9BF0100F2406244E8
:10021C0005618280011106CE22CC0010B7070008C0
:10022C001387C773B70700089387C773B307F740E3
:10023C0089872324F4FE832784FE2326F4FE832758
:10024C00C4FE6353F0028327C4FEFD173707000872
:10025C001307C7738A07BA979C4382978327C4FEF8
:10026C00FD172326F4FEE1BFDD3D0100F2406244A0
:10027C0005618280411122C6000801A037050008E3
:10028C00130525290285170400181304E456B71426
:10029C00002093840480E31394FE26817370043051
:1002AC0011200100011106CE22CC0010BD28B71779
:1002BC000140944BB717014037070020558F98CB5E
:1002CC00B7170140944BB71701400967558F98CB6E
:1002DC009307C4FE3E852122A30704FE8347F4FE48
:1002EC0013871700A307E4FE1307C4FEBE853A85E7
:1002FC002922B7170140D447B71701400967558F1A
:10030C00D8C7B7A70700138507129520B717014068
:10031C00D447B717014079777D17758FD8C7B7A722
:10032C00070013850712A12055BF411122C60008F2
:10033C00B7170240984FB71702401367070198CFC1
:10034C00B7170140D443B7170140370740FF7D175B
:10035C00758FD8C3B7170140D443B717014037077F
:10036C003000558FD8C30100324441018280011105
:10037C0022CE00102326A4FE8327C4FEB337F00040
:10038C0093F7F70F99C78327C4FEFD172326F4FEB6
:10039C00E5B70100724405618280411106C622C492
:1003AC000008B7170140D447B71701400967558FAC
:1003BC00D8C7E1671385076A5D3FB7170140D4477B
:1003CC00B717014079777D17758FD8C7E16713850B
:1003DC00076A713F0100B240224441018280011141
:1003EC0006CE22CC00102326A4FE0325C4FE5D20DD
:1003FC000100F240624405618280011122CE00109E
:10040C002326A4FEAE87A305F4FEB74701409387CD
:10041C0007809C4393F7070893B7170093F7F70FE0
:10042C0091C3E5B7B7470140938707800347B4FEF4
:10043C00D8C3B7470140938707809C4393F70704C1
:10044C0093B7170093F7F70F91C3E5B70100724408
:10045C0005618280011106CE22CC00102326A4FE59
:10046C002324B4FE832784FE83C7070099CF8327F8
:10047C0084FE83C70700BE850325C4FEBD3F8327CA
:10048C0084FE85072324F4FEF1BF0100F240624490
:10049C0005618280011122CE00102326A4FEB7171D
:1004AC000240984FB71702401367570098CFB71701
:1004BC0001409387078023A20700B7170140938759
:1004CC000780D843B7170140938707801367070746
:1004DC00D8C3B717014093870780D843B71701409B
:1004EC009387078013670740D8C3B7170240944F10
:1004FC00B71702401167558F98CFB74701409387C4
:10050C0007801307103498C7B747014093870780BB
:10051C00D447B74701409387078009671307C7067D
:0C052C00558FD8C7010072440561828021
:100538001000000000000000017A5200017C010157
:100548001B0D0200200000001800000008FCFFFF3F
:100558000E00000000420E10428801420C080044C0
:10056800C80C0210420E0000200000003C000000F1
:10057800F2FBFFFF0E00000000420E10428801420D
:100588000C080044C80C0210420E000024000000B1
:1005980060000000DCFBFFFFA800000000420E2006
:1005A8004481018802420C0800029AC142C80C0228
:1005B80020420E0024000000880000005CFCFFFFC1
:1005C8006000000000420E204481018802420C08AD
:1005D800000252C142C80C0220420E00180000005E
:1005E800B000000094FCFFFF0800000000420E105D
:1005F800428801420C08000010000000CC000000F6
:1006080080FCFFFF28000000000000001C00000024
:10061800E000000094FCFFFF8600000000420E206E
:100628004481018802420C080000000020000000FC
:1006380000010000FAFCFFFF4400000000420E1019
:10064800428801420C08007AC80C0210420E0000D1
:1006580020000000240100001AFDFFFF2C0000000C
:1006680000420E20428801420C080062C80C022099
:10067800420E0000240000004801000022FDFFFF98
:100688004400000000420E104481018802420C0818
:10069800000236C142C80C0210420E0024000000BD
:1006A800700100003EFDFFFF1C00000000420E200C
:1006B8004481018802420C08004EC142C80C022045
:1006C800420E0000200000009801000032FDFFFFEC
:1006D8005A00000000420E20428801420C08000225
:1006E80050C80C0220420E0024000000BC0100008B
:1006F80068FDFFFF4000000000420E204481018891
:1007080002420C080072C142C80C0220420E0000CE
:1007180020000000E401000080FDFFFF98000000B9
:1007280000420E20428801420C0800028EC80C02CA
:0407380020420E004D
:040000050800015C92
:00000001FF
