:020000040800F2
:04000000EF000028E5
:100004000000000000000000B20200080000000030
:100014000000000000000000B20200080000000020
:1000240000000000000000000000000000000000CC
:1000340000000000000000000000000000000000BC
:10004400B2020008B2020008B2020008B2020008BC
:10005400B2020008B2020008B2020008B2020008AC
:10006400B2020008B2020008B2020008B20200089C
:10007400B2020008B2020008B2020008B20200088C
:10008400B2020008B2020008B2020008B20200087C
:10009400B2020008B2020008B2020008B20200086C
:1000A400B2020008B2020008B2020008B20200085C
:1000B400B2020008B2020008B2020008B20200084C
:1000C400B2020008B2020008B2020008B20200083C
:1000D400B2020008B2020008B20200089803000845
:1000E400B2020008B2020008B2020008B20200081C
:1000F400B202000800000000000000000000000040
:100104000000000000000000B2020008000000002F
:10011400B2020008B2020008B2020008B2020008EB
:10012400B2020008B2020008B2020008B2020008DB
:10013400B2020008B2020008B20200080000000087
:1001440000000000B2020008B2020008B202000877
:08015400B2020008B20200082B
:10015C00411122C600080100324441018280411144
:10016C0022C600080100324441018280011106CEF2
:10017C0022CC0010B707000013870700B707000850
:10018C0093878761B307F74089872324F4FE2326DE
:10019C0004FE0327C4FE832784FE6352F702B707CD
:1001AC000008138787618327C4FE8A07BA979C438C
:1001BC0082978327C4FE85072326F4FED9BF493FC7
:1001CC00B70700081387C761B707000893878761D3
:1001DC00B307F74089872324F4FE232604FE032764
:1001EC00C4FE832784FE6352F702B7070008138707
:1001FC0087618327C4FE8A07BA979C43829783271B
:10020C00C4FE85072326F4FED9BF0100F2406244E8
:10021C0005618280011106CE22CC0010B7070008C0
:10022C001387C761B70700089387C761B307F74007
:10023C0089872324F4FE832784FE2326F4FE832758
:10024C00C4FE6353F0028327C4FEFD173707000872
:10025C001307C7618A07BA979C4382978327C4FE0A
:10026C00FD172326F4FEE1BFDD3D0100F2406244A0
:10027C0005618280370500081305A528028517043F
:10028C00001813046457B714002093840480E313FC
:10029C0094FE268173700430B7020008739072309C
:1002AC00F13531200100411122C6000801A00111D5
:1002BC0006CE22CC0010E5572324F4FE8520B71778
:1002CC000140944BB717014037070020558F98CB4E
:1002DC00B7170140944BB71701400967558F98CB5E
:1002EC00B7170140944BB717014037070020558FC3
:1002FC0098CB93070003A307F4FE0347F4FE930780
:10030C0000056314F700A30704FEB16713850735D6
:10031C008128B16713850735A120C5B7411122C6C5
:10032C000008B7170240984FB71702401367070130
:10033C0098CFB7170140D443B7170140370740FF98
:10034C007D17758FD8C3B7170140D443B717014039
:10035C0037073000558FD8C30100324441018280E9
:10036C00011122CE00102326A4FE8327C4FEB3372E
:10037C00F00093F7F70F99C78327C4FEFD172326C8
:10038C00F4FEE5B70100724405618280011122CEB2
:10039C000010B7170140D447B71701400967358FD4
:1003AC00D8C7B747014093870780DC43A307F4FE07
:1003BC000100724405618280011106CE22CC00102E
:1003CC002326A4FE2324B4FE0327C4FE8547631D05
:1003DC00F700032784FEC167FD176317F700B717F3
:1003EC000020138507805D280100F24062440561FE
:1003FC008280411106C622C40008C1679385F7FFAD
:10040C0005455D3FB240224441018280411122C624
:10041C00000893025030130300FCB3F2620093E225
:10042C0032007390523001003244410182804111FC
:10043C0022C60008736004300100324441018280FE
:10044C00011122CE00102326A4FE8327C4FE13978D
:10045C002700B71700D28507BA973E878547230038
:10046C00F7000100724405618280011122CE001058
:10047C002326A4FEAE87A305F4FE8327C4FE1397A0
:10048C002700B71700D28907BA973E878347B4FE77
:10049C002300F7000100724405618280011106CE31
:1004AC0022CC00102326A4FEB71700200327C4FE7D
:1004BC0023A2E7800325C4FE5D200100F2406244C4
:1004CC0005618280011122CE00102326A4FEAE8786
:1004DC00A305F4FEB7470140938707809C4393F72D
:1004EC00070893B7170093F7F70F91C3E5B7B74712
:1004FC000140938707800347B4FED8C3B747014038
:10050C00938707809C4393F7070493B7170093F7DF
:10051C00F70F91C3E5B701007244056182800111A8
:10052C0006CE22CC00102326A4FE2324B4FE83275F
:10053C0084FE83C7070099CF832784FE83C70700F7
:10054C00BE850325C4FEBD3F832784FE8507232477
:10055C00F4FEF1BF0100F24062440561828001119A
:10056C0006CE22CC00102326A4FEB7170240984FCB
:10057C00B71702401367570098CFB71701409387FE
:10058C00078023A20700B717014093870780D84341
:10059C00B7170140938707801367070BD8C3B717AA
:1005AC00014093870780D843B71701409387078092
:1005BC0013670740D8C3B7170240944FB7170240D0
:1005CC001167558F98CFB747014093870780130762
:1005DC00103498C7B747014093870780D447B74773
:1005EC0001409387078009671307C702558FD8C747
:1005FC00313D13058003A935854513058003B535B9
:0C060C003D350100F2406244056182802F
:04061800FE030008D5
:10061C001000000000000000017A5200017C010172
:10062C001B0D0200200000001800000024FBFFFF3F
:10063C000E00000000420E10428801420C080044DB
:10064C00C80C0210420E0000200000003C0000000C
:10065C000EFBFFFF0E00000000420E10428801420C
:10066C000C080044C80C0210420E000024000000CC
:10067C0060000000F8FAFFFFA800000000420E2006
:10068C004481018802420C0800029AC142C80C0243
:10069C0020420E00240000008800000078FBFFFFC1
:1006AC006000000000420E204481018802420C08C8
:1006BC00000252C142C80C0220420E001000000081
:1006CC00B0000000B0FBFFFF320000000000000093
:1006DC0018000000C4000000CEFBFFFF0800000063
:1006EC0000420E10428801420C0800001C00000061
:1006FC00E0000000BAFBFFFF6E00000000420E207D
:10070C004481018802420C08000000002000000017
:10071C000001000008FCFFFF4400000000420E1026
:10072C00428801420C08007AC80C0210420E0000EC
:10073C00200000002401000028FCFFFF2C0000001A
:10074C0000420E20428801420C080062C80C0220B4
:10075C00420E0000200000004801000030FCFFFFAA
:10076C002C00000000420E20428801420C0800625E
:10077C00C80C0220420E0000240000006C01000096
:10078C0038FCFFFF3A00000000420E204481018833
:10079C0002420C08006CC142C80C0220420E000040
:1007AC0024000000940100004AFCFFFF1A00000026
:1007BC0000420E104481018802420C08004CC142D8
:1007CC00C80C0210420E000020000000BC0100000A
:1007DC003CFCFFFF2200000000420E104288014248
:1007EC000C080058C80C0210420E0000200000003B
:1007FC00E00100003AFCFFFF1200000000420E1066
:10080C00428801420C080048C80C0210420E00003D
:10081C00200000000402000028FCFFFF2A0000005A
:10082C0000420E20428801420C080060C80C0220D5
:10083C00420E000020000000280200002EFCFFFFEA
:10084C003200000000420E20428801420C08006871
:10085C00C80C0220420E0000240000004C020000D4
:10086C003CFCFFFF2800000000420E204481018860
:10087C0002420C08005AC142C80C0220420E000071
:10088C0020000000740200003CFCFFFF5A00000036
:10089C0000420E20428801420C08000250C80C0293
:1008AC0020420E00240000009802000072FCFFFFA2
:1008BC004000000000420E204481018802420C08D6
:1008CC000072C142C80C0220420E0000240000003D
:1008DC00C00200008AFCFFFFAE00000000420E20A8
:1008EC004481018802420C080002A0C142C80C02DB
:0408FC0020420E0088
:10090000000000D2011000000010000003100000E1
:1009100002100000000000000B00000001000000B9
:100920001E00000004000000000000D201100000C2
:100930000010000003100000021000000000000082
:0D0940000B000000010000001E000000047C
:040000050800015C92
:00000001FF
